{
  "_format": "hh-sol-artifact-1",
  "contractName": "InsurancePolicy",
  "sourceName": "contracts/InsurancePolicy.sol",
  "abi": [
    {
      "inputs": [],
      "stateMutability": "nonpayable",
      "type": "constructor"
    },
    {
      "inputs": [
        {
          "internalType": "address",
          "name": "owner",
          "type": "address"
        }
      ],
      "name": "OwnableInvalidOwner",
      "type": "error"
    },
    {
      "inputs": [
        {
          "internalType": "address",
          "name": "account",
          "type": "address"
        }
      ],
      "name": "OwnableUnauthorizedAccount",
      "type": "error"
    },
    {
      "inputs": [],
      "name": "ReentrancyGuardReentrantCall",
      "type": "error"
    },
    {
      "anonymous": false,
      "inputs": [
        {
          "indexed": true,
          "internalType": "uint256",
          "name": "claimId",
          "type": "uint256"
        },
        {
          "indexed": true,
          "internalType": "uint256",
          "name": "policyId",
          "type": "uint256"
        },
        {
          "indexed": true,
          "internalType": "address",
          "name": "claimant",
          "type": "address"
        }
      ],
      "name": "ClaimFiled",
      "type": "event"
    },
    {
      "anonymous": false,
      "inputs": [
        {
          "indexed": true,
          "internalType": "uint256",
          "name": "claimId",
          "type": "uint256"
        },
        {
          "indexed": false,
          "internalType": "bool",
          "name": "approved",
          "type": "bool"
        },
        {
          "indexed": false,
          "internalType": "uint256",
          "name": "amount",
          "type": "uint256"
        }
      ],
      "name": "ClaimProcessed",
      "type": "event"
    },
    {
      "anonymous": false,
      "inputs": [
        {
          "indexed": true,
          "internalType": "address",
          "name": "previousOwner",
          "type": "address"
        },
        {
          "indexed": true,
          "internalType": "address",
          "name": "newOwner",
          "type": "address"
        }
      ],
      "name": "OwnershipTransferred",
      "type": "event"
    },
    {
      "anonymous": false,
      "inputs": [
        {
          "indexed": true,
          "internalType": "uint256",
          "name": "policyId",
          "type": "uint256"
        },
        {
          "indexed": true,
          "internalType": "address",
          "name": "holder",
          "type": "address"
        },
        {
          "indexed": false,
          "internalType": "uint256",
          "name": "premium",
          "type": "uint256"
        }
      ],
      "name": "PolicyCreated",
      "type": "event"
    },
    {
      "inputs": [],
      "name": "claimCounter",
      "outputs": [
        {
          "internalType": "uint256",
          "name": "",
          "type": "uint256"
        }
      ],
      "stateMutability": "view",
      "type": "function"
    },
    {
      "inputs": [
        {
          "internalType": "uint256",
          "name": "",
          "type": "uint256"
        }
      ],
      "name": "claims",
      "outputs": [
        {
          "internalType": "uint256",
          "name": "id",
          "type": "uint256"
        },
        {
          "internalType": "uint256",
          "name": "policyId",
          "type": "uint256"
        },
        {
          "internalType": "address",
          "name": "claimant",
          "type": "address"
        },
        {
          "internalType": "uint256",
          "name": "amount",
          "type": "uint256"
        },
        {
          "internalType": "string",
          "name": "description",
          "type": "string"
        },
        {
          "internalType": "bool",
          "name": "approved",
          "type": "bool"
        },
        {
          "internalType": "bool",
          "name": "processed",
          "type": "bool"
        }
      ],
      "stateMutability": "view",
      "type": "function"
    },
    {
      "inputs": [
        {
          "internalType": "uint256",
          "name": "_premium",
          "type": "uint256"
        },
        {
          "internalType": "uint256",
          "name": "_coverage",
          "type": "uint256"
        },
        {
          "internalType": "uint256",
          "name": "_duration",
          "type": "uint256"
        },
        {
          "internalType": "string",
          "name": "_policyType",
          "type": "string"
        }
      ],
      "name": "createPolicy",
      "outputs": [],
      "stateMutability": "payable",
      "type": "function"
    },
    {
      "inputs": [
        {
          "internalType": "uint256",
          "name": "_policyId",
          "type": "uint256"
        },
        {
          "internalType": "uint256",
          "name": "_amount",
          "type": "uint256"
        },
        {
          "internalType": "string",
          "name": "_description",
          "type": "string"
        }
      ],
      "name": "fileClaim",
      "outputs": [],
      "stateMutability": "nonpayable",
      "type": "function"
    },
    {
      "inputs": [
        {
          "internalType": "uint256",
          "name": "_claimId",
          "type": "uint256"
        }
      ],
      "name": "getClaimDetails",
      "outputs": [
        {
          "components": [
            {
              "internalType": "uint256",
              "name": "id",
              "type": "uint256"
            },
            {
              "internalType": "uint256",
              "name": "policyId",
              "type": "uint256"
            },
            {
              "internalType": "address",
              "name": "claimant",
              "type": "address"
            },
            {
              "internalType": "uint256",
              "name": "amount",
              "type": "uint256"
            },
            {
              "internalType": "string",
              "name": "description",
              "type": "string"
            },
            {
              "internalType": "bool",
              "name": "approved",
              "type": "bool"
            },
            {
              "internalType": "bool",
              "name": "processed",
              "type": "bool"
            }
          ],
          "internalType": "struct InsurancePolicy.Claim",
          "name": "",
          "type": "tuple"
        }
      ],
      "stateMutability": "view",
      "type": "function"
    },
    {
      "inputs": [
        {
          "internalType": "uint256",
          "name": "_policyId",
          "type": "uint256"
        }
      ],
      "name": "getPolicyDetails",
      "outputs": [
        {
          "components": [
            {
              "internalType": "uint256",
              "name": "id",
              "type": "uint256"
            },
            {
              "internalType": "address",
              "name": "holder",
              "type": "address"
            },
            {
              "internalType": "uint256",
              "name": "premium",
              "type": "uint256"
            },
            {
              "internalType": "uint256",
              "name": "coverage",
              "type": "uint256"
            },
            {
              "internalType": "uint256",
              "name": "startDate",
              "type": "uint256"
            },
            {
              "internalType": "uint256",
              "name": "endDate",
              "type": "uint256"
            },
            {
              "internalType": "bool",
              "name": "active",
              "type": "bool"
            },
            {
              "internalType": "string",
              "name": "policyType",
              "type": "string"
            }
          ],
          "internalType": "struct InsurancePolicy.Policy",
          "name": "",
          "type": "tuple"
        }
      ],
      "stateMutability": "view",
      "type": "function"
    },
    {
      "inputs": [],
      "name": "owner",
      "outputs": [
        {
          "internalType": "address",
          "name": "",
          "type": "address"
        }
      ],
      "stateMutability": "view",
      "type": "function"
    },
    {
      "inputs": [
        {
          "internalType": "uint256",
          "name": "",
          "type": "uint256"
        }
      ],
      "name": "policies",
      "outputs": [
        {
          "internalType": "uint256",
          "name": "id",
          "type": "uint256"
        },
        {
          "internalType": "address",
          "name": "holder",
          "type": "address"
        },
        {
          "internalType": "uint256",
          "name": "premium",
          "type": "uint256"
        },
        {
          "internalType": "uint256",
          "name": "coverage",
          "type": "uint256"
        },
        {
          "internalType": "uint256",
          "name": "startDate",
          "type": "uint256"
        },
        {
          "internalType": "uint256",
          "name": "endDate",
          "type": "uint256"
        },
        {
          "internalType": "bool",
          "name": "active",
          "type": "bool"
        },
        {
          "internalType": "string",
          "name": "policyType",
          "type": "string"
        }
      ],
      "stateMutability": "view",
      "type": "function"
    },
    {
      "inputs": [],
      "name": "policyCounter",
      "outputs": [
        {
          "internalType": "uint256",
          "name": "",
          "type": "uint256"
        }
      ],
      "stateMutability": "view",
      "type": "function"
    },
    {
      "inputs": [
        {
          "internalType": "uint256",
          "name": "_claimId",
          "type": "uint256"
        },
        {
          "internalType": "bool",
          "name": "_approved",
          "type": "bool"
        }
      ],
      "name": "processClaim",
      "outputs": [],
      "stateMutability": "nonpayable",
      "type": "function"
    },
    {
      "inputs": [],
      "name": "renounceOwnership",
      "outputs": [],
      "stateMutability": "nonpayable",
      "type": "function"
    },
    {
      "inputs": [
        {
          "internalType": "address",
          "name": "newOwner",
          "type": "address"
        }
      ],
      "name": "transferOwnership",
      "outputs": [],
      "stateMutability": "nonpayable",
      "type": "function"
    }
  ],
  "bytecode": "0x608060405234801561001057600080fd5b50338061003757604051631e4fbdf760e01b81526000600482015260240160405180910390fd5b61004081610054565b5060018055600060048190556005556100a4565b600080546001600160a01b038381166001600160a01b0319831681178455604051919092169283917f8be0079c531659141344cd1fd0a4f28419497f9722a3daafe3b4186f6b6457e09190a35050565b6111f4806100b36000396000f3fe6080604052600436106100a75760003560e01c8063bac71e0011610064578063bac71e0014610187578063cc038010146101b4578063d3e89483146101e1578063d52c1bea14610215578063f2fde38b1461022b578063f6b707f11461024b57600080fd5b806335446def146100ac5780634efa8f17146100ce578063715018a6146100f75780638da5cb5b1461010c578063a3a5dcf614610134578063a888c2cd14610154575b600080fd5b3480156100b857600080fd5b506100cc6100c7366004610c8f565b61025e565b005b3480156100da57600080fd5b506100e460055481565b6040519081526020015b60405180910390f35b34801561010357600080fd5b506100cc61038b565b34801561011857600080fd5b506000546040516001600160a01b0390911681526020016100ee565b34801561014057600080fd5b506100cc61014f366004610d67565b61039f565b34801561016057600080fd5b5061017461016f366004610db7565b6105af565b6040516100ee9796959493929190610e16565b34801561019357600080fd5b506101a76101a2366004610db7565b610687565b6040516100ee9190610e64565b3480156101c057600080fd5b506101d46101cf366004610db7565b6107c8565b6040516100ee9190610ed5565b3480156101ed57600080fd5b506102016101fc366004610db7565b610925565b6040516100ee989796959493929190610f4c565b34801561022157600080fd5b506100e460045481565b34801561023757600080fd5b506100cc610246366004610fa3565b610a01565b6100cc610259366004610fd3565b610a3f565b610266610be8565b60008281526003602052604090206005810154610100900460ff16156102d35760405162461bcd60e51b815260206004820152601760248201527f436c61696d20616c72656164792070726f63657373656400000000000000000060448201526064015b60405180910390fd5b60058101805461ff0019841580159190911661ffff19909216919091176101001790915561033d57600281015460038201546040516001600160a01b039092169181156108fc0291906000818181858888f1935050505015801561033b573d6000803e3d6000fd5b505b827fbb92f6f5b9e3996f250b4077e113320be5e290fb3a17e3893c2e56d881d2122b83836003015460405161037e9291909115158252602082015260400190565b60405180910390a2505050565b610393610be8565b61039d6000610c15565b565b6000838152600260205260409020600101546001600160a01b031633146103fc5760405162461bcd60e51b81526020600482015260116024820152702737ba103837b634b1bc903437b63232b960791b60448201526064016102ca565b60008381526002602052604090206006015460ff166104515760405162461bcd60e51b8152602060048201526011602482015270506f6c696379206e6f742061637469766560781b60448201526064016102ca565b6000838152600260205260409020600501544211156104a35760405162461bcd60e51b815260206004820152600e60248201526d141bdb1a58de48195e1c1a5c995960921b60448201526064016102ca565b6040805160e0810182526005548082526020808301878152338486019081526060850188815260808601888152600060a0880181905260c08801819052958652600394859052969094208551815591516001830155516002820180546001600160a01b0319166001600160a01b039092169190911790559151908201559151909190600482019061053490826110b6565b5060a08201516005918201805460c09094015115156101000261ff00199215159290921661ffff19909416939093171790915554604051339185917fa9b5b59eef6f1103d60211038d32f7e78914e6cd5ec007c8212ddab8a661094390600090a4600580549060006105a58361118c565b9190505550505050565b600360208190526000918252604090912080546001820154600283015493830154600484018054939592946001600160a01b03909316939192916105f29061102d565b80601f016020809104026020016040519081016040528092919081815260200182805461061e9061102d565b801561066b5780601f106106405761010080835404028352916020019161066b565b820191906000526020600020905b81548152906001019060200180831161064e57829003601f168201915b5050506005909301549192505060ff8082169161010090041687565b6040805160e0810182526000808252602082018190529181018290526060808201839052608082015260a0810182905260c0810191909152600082815260036020818152604092839020835160e0810185528154815260018201549281019290925260028101546001600160a01b03169382019390935290820154606082015260048201805491929160808401919061071f9061102d565b80601f016020809104026020016040519081016040528092919081815260200182805461074b9061102d565b80156107985780601f1061076d57610100808354040283529160200191610798565b820191906000526020600020905b81548152906001019060200180831161077b57829003601f168201915b50505091835250506005919091015460ff8082161515602084015261010090910416151560409091015292915050565b61081b6040518061010001604052806000815260200160006001600160a01b0316815260200160008152602001600081526020016000815260200160008152602001600015158152602001606081525090565b6000828152600260208181526040928390208351610100810185528154815260018201546001600160a01b03169281019290925291820154928101929092526003810154606083015260048101546080830152600581015460a0830152600681015460ff16151560c083015260078101805460e08401919061089c9061102d565b80601f01602080910402602001604051908101604052809291908181526020018280546108c89061102d565b80156109155780601f106108ea57610100808354040283529160200191610915565b820191906000526020600020905b8154815290600101906020018083116108f857829003601f168201915b5050505050815250509050919050565b60026020819052600091825260409091208054600182015492820154600383015460048401546005850154600686015460078701805496986001600160a01b031697959694959394929360ff9092169261097e9061102d565b80601f01602080910402602001604051908101604052809291908181526020018280546109aa9061102d565b80156109f75780601f106109cc576101008083540402835291602001916109f7565b820191906000526020600020905b8154815290600101906020018083116109da57829003601f168201915b5050505050905088565b610a09610be8565b6001600160a01b038116610a3357604051631e4fbdf760e01b8152600060048201526024016102ca565b610a3c81610c15565b50565b610a47610c65565b833414610aa25760405162461bcd60e51b8152602060048201526024808201527f5072656d69756d20616d6f756e74206d757374206d617463682073656e742076604482015263616c756560e01b60648201526084016102ca565b6040518061010001604052806004548152602001336001600160a01b031681526020018581526020018481526020014281526020018342610ae391906111a5565b8152600160208083018290526040928301859052600480546000908152600280845290859020865181559286015193830180546001600160a01b0319166001600160a01b039095169490941790935592840151918101919091556060830151600382015560808301519181019190915560a0820151600582015560c082015160068201805460ff191691151591909117905560e08201516007820190610b8990826110b6565b50506004546040518681523392507f601882301d3e3fce7fe3a99d4bb17ef5b6699b417bdd29f2bfb82e19fcbcb6609060200160405180910390a360048054906000610bd48361118c565b9190505550610be260018055565b50505050565b6000546001600160a01b0316331461039d5760405163118cdaa760e01b81523360048201526024016102ca565b600080546001600160a01b038381166001600160a01b0319831681178455604051919092169283917f8be0079c531659141344cd1fd0a4f28419497f9722a3daafe3b4186f6b6457e09190a35050565b600260015403610c8857604051633ee5aeb560e01b815260040160405180910390fd5b6002600155565b60008060408385031215610ca257600080fd5b8235915060208301358015158114610cb957600080fd5b809150509250929050565b634e487b7160e01b600052604160045260246000fd5b600082601f830112610ceb57600080fd5b813567ffffffffffffffff80821115610d0657610d06610cc4565b604051601f8301601f19908116603f01168101908282118183101715610d2e57610d2e610cc4565b81604052838152866020858801011115610d4757600080fd5b836020870160208301376000602085830101528094505050505092915050565b600080600060608486031215610d7c57600080fd5b8335925060208401359150604084013567ffffffffffffffff811115610da157600080fd5b610dad86828701610cda565b9150509250925092565b600060208284031215610dc957600080fd5b5035919050565b6000815180845260005b81811015610df657602081850181015186830182015201610dda565b506000602082860101526020601f19601f83011685010191505092915050565b87815286602082015260018060a01b038616604082015284606082015260e060808201526000610e4960e0830186610dd0565b93151560a08301525090151560c09091015295945050505050565b60208152815160208201526020820151604082015260018060a01b036040830151166060820152606082015160808201526000608083015160e060a0840152610eb1610100840182610dd0565b905060a0840151151560c084015260c0840151151560e08401528091505092915050565b602081528151602082015260018060a01b0360208301511660408201526040820151606082015260608201516080820152608082015160a082015260a082015160c082015260c0820151151560e0820152600060e0830151610100808185015250610f44610120840182610dd0565b949350505050565b60006101008a835260018060a01b038a1660208401528860408401528760608401528660808401528560a084015284151560c08401528060e0840152610f9481840185610dd0565b9b9a5050505050505050505050565b600060208284031215610fb557600080fd5b81356001600160a01b0381168114610fcc57600080fd5b9392505050565b60008060008060808587031215610fe957600080fd5b843593506020850135925060408501359150606085013567ffffffffffffffff81111561101557600080fd5b61102187828801610cda565b91505092959194509250565b600181811c9082168061104157607f821691505b60208210810361106157634e487b7160e01b600052602260045260246000fd5b50919050565b601f8211156110b157600081815260208120601f850160051c8101602086101561108e5750805b601f850160051c820191505b818110156110ad5782815560010161109a565b5050505b505050565b815167ffffffffffffffff8111156110d0576110d0610cc4565b6110e4816110de845461102d565b84611067565b602080601f83116001811461111957600084156111015750858301515b600019600386901b1c1916600185901b1785556110ad565b600085815260208120601f198616915b8281101561114857888601518255948401946001909101908401611129565b50858210156111665787850151600019600388901b60f8161c191681555b5050505050600190811b01905550565b634e487b7160e01b600052601160045260246000fd5b60006001820161119e5761119e611176565b5060010190565b808201808211156111b8576111b8611176565b9291505056fea26469706673582212200936ca9b52def107880f0c3a36f3361673dcb8c52ca6c64b587e05985ba5c34a64736f6c63430008140033",
  "linkReferences": {},
  "deployedLinkReferences": {}
}